{
  "contractName": "ERC20",
  "abi": [
    {
      "constant": true,
      "inputs": [],
      "name": "mintingFinished",
      "outputs": [
        {
          "name": "",
          "type": "bool"
        }
      ],
      "payable": false,
      "stateMutability": "view",
      "type": "function"
    },
    {
      "constant": false,
      "inputs": [
        {
          "name": "_spender",
          "type": "address"
        },
        {
          "name": "_value",
          "type": "uint256"
        }
      ],
      "name": "approve",
      "outputs": [
        {
          "name": "",
          "type": "bool"
        }
      ],
      "payable": false,
      "stateMutability": "nonpayable",
      "type": "function"
    },
    {
      "constant": true,
      "inputs": [],
      "name": "totalSupply",
      "outputs": [
        {
          "name": "",
          "type": "uint256"
        }
      ],
      "payable": false,
      "stateMutability": "view",
      "type": "function"
    },
    {
      "constant": false,
      "inputs": [
        {
          "name": "_from",
          "type": "address"
        },
        {
          "name": "_to",
          "type": "address"
        },
        {
          "name": "_value",
          "type": "uint256"
        }
      ],
      "name": "transferFrom",
      "outputs": [
        {
          "name": "",
          "type": "bool"
        }
      ],
      "payable": false,
      "stateMutability": "nonpayable",
      "type": "function"
    },
    {
      "constant": false,
      "inputs": [
        {
          "name": "_to",
          "type": "address"
        },
        {
          "name": "_amount",
          "type": "uint256"
        }
      ],
      "name": "mint",
      "outputs": [
        {
          "name": "",
          "type": "bool"
        }
      ],
      "payable": false,
      "stateMutability": "nonpayable",
      "type": "function"
    },
    {
      "constant": false,
      "inputs": [
        {
          "name": "_spender",
          "type": "address"
        },
        {
          "name": "_subtractedValue",
          "type": "uint256"
        }
      ],
      "name": "decreaseApproval",
      "outputs": [
        {
          "name": "success",
          "type": "bool"
        }
      ],
      "payable": false,
      "stateMutability": "nonpayable",
      "type": "function"
    },
    {
      "constant": true,
      "inputs": [
        {
          "name": "_owner",
          "type": "address"
        }
      ],
      "name": "balanceOf",
      "outputs": [
        {
          "name": "balance",
          "type": "uint256"
        }
      ],
      "payable": false,
      "stateMutability": "view",
      "type": "function"
    },
    {
      "constant": false,
      "inputs": [],
      "name": "finishMinting",
      "outputs": [
        {
          "name": "",
          "type": "bool"
        }
      ],
      "payable": false,
      "stateMutability": "nonpayable",
      "type": "function"
    },
    {
      "constant": true,
      "inputs": [],
      "name": "owner",
      "outputs": [
        {
          "name": "",
          "type": "address"
        }
      ],
      "payable": false,
      "stateMutability": "view",
      "type": "function"
    },
    {
      "constant": false,
      "inputs": [
        {
          "name": "_to",
          "type": "address"
        },
        {
          "name": "_value",
          "type": "uint256"
        }
      ],
      "name": "transfer",
      "outputs": [
        {
          "name": "",
          "type": "bool"
        }
      ],
      "payable": false,
      "stateMutability": "nonpayable",
      "type": "function"
    },
    {
      "constant": false,
      "inputs": [
        {
          "name": "_spender",
          "type": "address"
        },
        {
          "name": "_addedValue",
          "type": "uint256"
        }
      ],
      "name": "increaseApproval",
      "outputs": [
        {
          "name": "success",
          "type": "bool"
        }
      ],
      "payable": false,
      "stateMutability": "nonpayable",
      "type": "function"
    },
    {
      "constant": true,
      "inputs": [
        {
          "name": "_owner",
          "type": "address"
        },
        {
          "name": "_spender",
          "type": "address"
        }
      ],
      "name": "allowance",
      "outputs": [
        {
          "name": "remaining",
          "type": "uint256"
        }
      ],
      "payable": false,
      "stateMutability": "view",
      "type": "function"
    },
    {
      "constant": false,
      "inputs": [
        {
          "name": "newOwner",
          "type": "address"
        }
      ],
      "name": "transferOwnership",
      "outputs": [],
      "payable": false,
      "stateMutability": "nonpayable",
      "type": "function"
    },
    {
      "anonymous": false,
      "inputs": [
        {
          "indexed": true,
          "name": "from",
          "type": "address"
        },
        {
          "indexed": true,
          "name": "to",
          "type": "address"
        },
        {
          "indexed": false,
          "name": "value",
          "type": "uint256"
        }
      ],
      "name": "Transfer",
      "type": "event"
    },
    {
      "anonymous": false,
      "inputs": [
        {
          "indexed": true,
          "name": "owner",
          "type": "address"
        },
        {
          "indexed": true,
          "name": "spender",
          "type": "address"
        },
        {
          "indexed": false,
          "name": "value",
          "type": "uint256"
        }
      ],
      "name": "Approval",
      "type": "event"
    },
    {
      "anonymous": false,
      "inputs": [
        {
          "indexed": true,
          "name": "to",
          "type": "address"
        },
        {
          "indexed": false,
          "name": "amount",
          "type": "uint256"
        }
      ],
      "name": "Mint",
      "type": "event"
    },
    {
      "anonymous": false,
      "inputs": [],
      "name": "MintFinished",
      "type": "event"
    },
    {
      "anonymous": false,
      "inputs": [
        {
          "indexed": true,
          "name": "previousOwner",
          "type": "address"
        },
        {
          "indexed": true,
          "name": "newOwner",
          "type": "address"
        }
      ],
      "name": "OwnershipTransferred",
      "type": "event"
    }
  ],
  "bytecode": "0x60606040526002805460ff1916905560008054600160a060020a033316600160a060020a03199091161790556109c68061003a6000396000f300606060405236156100c25763ffffffff7c010000000000000000000000000000000000000000000000000000000060003504166305d2035b81146100c7578063095ea7b3146100ee57806318160ddd1461011057806323b872dd1461013557806340c10f191461015d578063661884631461017f57806370a08231146101a15780637d64bcb4146101c05780638da5cb5b146101d3578063a9059cbb14610202578063d73dd62314610224578063dd62ed3e14610246578063f2fde38b1461026b575b600080fd5b34156100d257600080fd5b6100da61028c565b604051901515815260200160405180910390f35b34156100f957600080fd5b6100da600160a060020a0360043516602435610295565b341561011b57600080fd5b610123610301565b60405190815260200160405180910390f35b341561014057600080fd5b6100da600160a060020a0360043581169060243516604435610307565b341561016857600080fd5b6100da600160a060020a0360043516602435610489565b341561018a57600080fd5b6100da600160a060020a036004351660243561058e565b34156101ac57600080fd5b610123600160a060020a0360043516610688565b34156101cb57600080fd5b6100da6106a3565b34156101de57600080fd5b6101e66106fe565b604051600160a060020a03909116815260200160405180910390f35b341561020d57600080fd5b6100da600160a060020a036004351660243561070d565b341561022f57600080fd5b6100da600160a060020a0360043516602435610808565b341561025157600080fd5b610123600160a060020a03600435811690602435166108ac565b341561027657600080fd5b61028a600160a060020a03600435166108d7565b005b60025460ff1681565b600160a060020a03338116600081815260046020908152604080832094871680845294909152808220859055909291907f8c5be1e5ebec7d5bd14f71427d1e84f3dd0314c0f7b2291e5b200ac8c7c3b9259085905190815260200160405180910390a350600192915050565b60015481565b6000600160a060020a038316151561031e57600080fd5b600160a060020a03841660009081526003602052604090205482111561034357600080fd5b600160a060020a038085166000908152600460209081526040808320339094168352929052205482111561037657600080fd5b600160a060020a03841660009081526003602052604090205461039f908363ffffffff61097216565b600160a060020a0380861660009081526003602052604080822093909355908516815220546103d4908363ffffffff61098416565b600160a060020a0380851660009081526003602090815260408083209490945587831682526004815283822033909316825291909152205461041c908363ffffffff61097216565b600160a060020a03808616600081815260046020908152604080832033861684529091529081902093909355908516917fddf252ad1be2c89b69c2b068fc378daa952ba7f163c4a11628f55a4df523b3ef9085905190815260200160405180910390a35060019392505050565b6000805433600160a060020a039081169116146104a557600080fd5b60025460ff16156104b557600080fd5b6001546104c8908363ffffffff61098416565b600155600160a060020a0383166000908152600360205260409020546104f4908363ffffffff61098416565b600160a060020a0384166000818152600360205260409081902092909255907f0f6798a560793a54c3bcfe86a93cde1e73087d944c0ea20544137d41213968859084905190815260200160405180910390a282600160a060020a031660007fddf252ad1be2c89b69c2b068fc378daa952ba7f163c4a11628f55a4df523b3ef8460405190815260200160405180910390a350600192915050565b600160a060020a033381166000908152600460209081526040808320938616835292905290812054808311156105eb57600160a060020a033381166000908152600460209081526040808320938816835292905290812055610622565b6105fb818463ffffffff61097216565b600160a060020a033381166000908152600460209081526040808320938916835292905220555b600160a060020a0333811660008181526004602090815260408083209489168084529490915290819020547f8c5be1e5ebec7d5bd14f71427d1e84f3dd0314c0f7b2291e5b200ac8c7c3b925915190815260200160405180910390a35060019392505050565b600160a060020a031660009081526003602052604090205490565b6000805433600160a060020a039081169116146106bf57600080fd5b6002805460ff191660011790557fae5184fba832cb2b1f702aca6117b8d265eaf03ad33eb133f19dde0f5920fa0860405160405180910390a150600190565b600054600160a060020a031681565b6000600160a060020a038316151561072457600080fd5b600160a060020a03331660009081526003602052604090205482111561074957600080fd5b600160a060020a033316600090815260036020526040902054610772908363ffffffff61097216565b600160a060020a0333811660009081526003602052604080822093909355908516815220546107a7908363ffffffff61098416565b600160a060020a0380851660008181526003602052604090819020939093559133909116907fddf252ad1be2c89b69c2b068fc378daa952ba7f163c4a11628f55a4df523b3ef9085905190815260200160405180910390a350600192915050565b600160a060020a033381166000908152600460209081526040808320938616835292905290812054610840908363ffffffff61098416565b600160a060020a0333811660008181526004602090815260408083209489168084529490915290819020849055919290917f8c5be1e5ebec7d5bd14f71427d1e84f3dd0314c0f7b2291e5b200ac8c7c3b92591905190815260200160405180910390a350600192915050565b600160a060020a03918216600090815260046020908152604080832093909416825291909152205490565b60005433600160a060020a039081169116146108f257600080fd5b600160a060020a038116151561090757600080fd5b600054600160a060020a0380831691167f8be0079c531659141344cd1fd0a4f28419497f9722a3daafe3b4186f6b6457e060405160405180910390a36000805473ffffffffffffffffffffffffffffffffffffffff1916600160a060020a0392909216919091179055565b60008282111561097e57fe5b50900390565b60008282018381101561099357fe5b93925050505600a165627a7a723058206784a78327603de9a2dae3ecf78ac5d6f9be103cd8c75f9b7b4c2f9413278bbc0029",
  "source": "pragma solidity ^0.4.11;\n\nimport \"./SafeMath.sol\";\nimport \"./Ownable.sol\";\n\ncontract ERC20 is Ownable {\n    \n// Constructor\n    \n    using SafeMath for uint256;\n\n// Data\n\n    uint256 public totalSupply;\n    bool public mintingFinished = false;\n    mapping(address => uint256) balances;\n    mapping (address => mapping (address => uint256)) internal allowed;\n  \n// Modifiers\n  \n    modifier canMint() {\n        require(!mintingFinished);\n        _;\n    }\n    \n// Events\n    \n    event Transfer(address indexed from, address indexed to, uint256 value);\n    event Approval(address indexed owner, address indexed spender, uint256 value);\n    event Mint(address indexed to, uint256 amount);\n    event MintFinished();\n    \n// Functions\n\n    function transfer(address _to, uint256 _value) public returns (bool) {\n        require(_to != address(0));\n        require(_value <= balances[msg.sender]);\n        \n        // SafeMath.sub will throw if there is not enough balance.\n        balances[msg.sender] = balances[msg.sender].sub(_value);\n        balances[_to] = balances[_to].add(_value);\n        Transfer(msg.sender, _to, _value);\n        return true;\n    }\n\n    function balanceOf(address _owner) public constant returns (uint256 balance) {\n        return balances[_owner];\n    }\n\n    function transferFrom(address _from, address _to, uint256 _value) public returns (bool) {\n        require(_to != address(0));\n        require(_value <= balances[_from]);\n        require(_value <= allowed[_from][msg.sender]);\n        \n        balances[_from] = balances[_from].sub(_value);\n        balances[_to] = balances[_to].add(_value);\n        allowed[_from][msg.sender] = allowed[_from][msg.sender].sub(_value);\n        Transfer(_from, _to, _value);\n        return true;\n    }\n\n    function approve(address _spender, uint256 _value) public returns (bool) {\n        allowed[msg.sender][_spender] = _value;\n        Approval(msg.sender, _spender, _value);\n        return true;\n    }\n\n    function allowance(address _owner, address _spender) public constant returns (uint256 remaining) {\n        return allowed[_owner][_spender];\n    }\n\n    function increaseApproval (address _spender, uint _addedValue) public returns (bool success) {\n        allowed[msg.sender][_spender] = allowed[msg.sender][_spender].add(_addedValue);\n        Approval(msg.sender, _spender, allowed[msg.sender][_spender]);\n        return true;\n    }\n\n    function decreaseApproval (address _spender, uint _subtractedValue) public returns (bool success) {\n        uint oldValue = allowed[msg.sender][_spender];\n        if (_subtractedValue > oldValue) {\n            allowed[msg.sender][_spender] = 0;\n        } else {\n            allowed[msg.sender][_spender] = oldValue.sub(_subtractedValue);\n        }\n        Approval(msg.sender, _spender, allowed[msg.sender][_spender]);\n        return true;\n    }\n\n    function mint(address _to, uint256 _amount) onlyOwner canMint public returns (bool) {\n        totalSupply = totalSupply.add(_amount);\n        balances[_to] = balances[_to].add(_amount);\n        Mint(_to, _amount);\n        Transfer(0x0, _to, _amount);\n        return true;\n    }\n\n    function finishMinting() onlyOwner public returns (bool) {\n        mintingFinished = true;\n        MintFinished();\n        return true;\n    }\n\n}",
  "sourcePath": "/Users/stephanegosselin/Documents/decentralized-exchange/contracts/zeppelin/ERC20.sol",
  "schemaVersion": "1.0.0",
  "updatedAt": "2017-10-12T14:25:22.029Z"
}