{
  "contractName": "Exchange",
  "abi": [
    {
      "constant": true,
      "inputs": [
        {
          "name": "_tokenSymbol",
          "type": "string"
        }
      ],
      "name": "getTokenBalance",
      "outputs": [
        {
          "name": "",
          "type": "uint256"
        }
      ],
      "payable": false,
      "stateMutability": "view",
      "type": "function"
    },
    {
      "constant": true,
      "inputs": [
        {
          "name": "token_symbol",
          "type": "string"
        }
      ],
      "name": "getBuyOrderBook",
      "outputs": [
        {
          "name": "",
          "type": "uint256[]"
        },
        {
          "name": "",
          "type": "uint256[]"
        }
      ],
      "payable": false,
      "stateMutability": "view",
      "type": "function"
    },
    {
      "constant": true,
      "inputs": [],
      "name": "getEthBalanceInWei",
      "outputs": [
        {
          "name": "",
          "type": "uint256"
        }
      ],
      "payable": false,
      "stateMutability": "view",
      "type": "function"
    },
    {
      "constant": false,
      "inputs": [
        {
          "name": "_tokenSymbol",
          "type": "string"
        },
        {
          "name": "_amount",
          "type": "uint256"
        }
      ],
      "name": "depositToken",
      "outputs": [],
      "payable": false,
      "stateMutability": "nonpayable",
      "type": "function"
    },
    {
      "constant": false,
      "inputs": [
        {
          "name": "_amountWei",
          "type": "uint256"
        }
      ],
      "name": "withdrawEther",
      "outputs": [],
      "payable": false,
      "stateMutability": "nonpayable",
      "type": "function"
    },
    {
      "constant": false,
      "inputs": [
        {
          "name": "token_symbol",
          "type": "string"
        },
        {
          "name": "price_in_wei",
          "type": "uint256"
        },
        {
          "name": "amount",
          "type": "uint256"
        }
      ],
      "name": "buyToken",
      "outputs": [],
      "payable": false,
      "stateMutability": "nonpayable",
      "type": "function"
    },
    {
      "constant": true,
      "inputs": [
        {
          "name": "token_symbol",
          "type": "string"
        }
      ],
      "name": "getSellOrderBook",
      "outputs": [
        {
          "name": "",
          "type": "uint256[]"
        },
        {
          "name": "",
          "type": "uint256[]"
        }
      ],
      "payable": false,
      "stateMutability": "view",
      "type": "function"
    },
    {
      "constant": false,
      "inputs": [
        {
          "name": "token_symbol",
          "type": "string"
        },
        {
          "name": "price_in_wei",
          "type": "uint256"
        },
        {
          "name": "amount",
          "type": "uint256"
        }
      ],
      "name": "sellToken",
      "outputs": [],
      "payable": false,
      "stateMutability": "nonpayable",
      "type": "function"
    },
    {
      "constant": true,
      "inputs": [],
      "name": "owner",
      "outputs": [
        {
          "name": "",
          "type": "address"
        }
      ],
      "payable": false,
      "stateMutability": "view",
      "type": "function"
    },
    {
      "constant": true,
      "inputs": [
        {
          "name": "token_symbol",
          "type": "string"
        }
      ],
      "name": "hasToken",
      "outputs": [
        {
          "name": "",
          "type": "bool"
        }
      ],
      "payable": false,
      "stateMutability": "view",
      "type": "function"
    },
    {
      "constant": false,
      "inputs": [],
      "name": "depositEther",
      "outputs": [],
      "payable": true,
      "stateMutability": "payable",
      "type": "function"
    },
    {
      "constant": false,
      "inputs": [
        {
          "name": "_tokenSymbol",
          "type": "string"
        },
        {
          "name": "_erc20Addr",
          "type": "address"
        }
      ],
      "name": "addToken",
      "outputs": [],
      "payable": false,
      "stateMutability": "nonpayable",
      "type": "function"
    },
    {
      "constant": true,
      "inputs": [
        {
          "name": "_tokenSymbol",
          "type": "string"
        }
      ],
      "name": "getTokenAddress",
      "outputs": [
        {
          "name": "",
          "type": "address"
        }
      ],
      "payable": false,
      "stateMutability": "view",
      "type": "function"
    },
    {
      "constant": false,
      "inputs": [
        {
          "name": "_tokenSymbol",
          "type": "string"
        },
        {
          "name": "_amount",
          "type": "uint256"
        }
      ],
      "name": "withdrawToken",
      "outputs": [],
      "payable": false,
      "stateMutability": "nonpayable",
      "type": "function"
    },
    {
      "constant": false,
      "inputs": [
        {
          "name": "token_symbol",
          "type": "string"
        },
        {
          "name": "isSellOrder",
          "type": "bool"
        },
        {
          "name": "price_in_wei",
          "type": "uint256"
        },
        {
          "name": "offer_key",
          "type": "uint256"
        }
      ],
      "name": "cancelOrder",
      "outputs": [],
      "payable": false,
      "stateMutability": "nonpayable",
      "type": "function"
    },
    {
      "constant": false,
      "inputs": [
        {
          "name": "newOwner",
          "type": "address"
        }
      ],
      "name": "transferOwnership",
      "outputs": [],
      "payable": false,
      "stateMutability": "nonpayable",
      "type": "function"
    },
    {
      "payable": true,
      "stateMutability": "payable",
      "type": "fallback"
    },
    {
      "anonymous": false,
      "inputs": [
        {
          "indexed": false,
          "name": "_tokenSymbol",
          "type": "string"
        },
        {
          "indexed": true,
          "name": "_erc20Addr",
          "type": "address"
        },
        {
          "indexed": true,
          "name": "_tokenIndex",
          "type": "uint8"
        }
      ],
      "name": "AddToken",
      "type": "event"
    },
    {
      "anonymous": false,
      "inputs": [
        {
          "indexed": true,
          "name": "depositor",
          "type": "address"
        },
        {
          "indexed": true,
          "name": "amountWei",
          "type": "uint256"
        }
      ],
      "name": "DepositEther",
      "type": "event"
    },
    {
      "anonymous": false,
      "inputs": [
        {
          "indexed": true,
          "name": "withdrawer",
          "type": "address"
        },
        {
          "indexed": true,
          "name": "amountWei",
          "type": "uint256"
        }
      ],
      "name": "WithdrawEther",
      "type": "event"
    },
    {
      "anonymous": false,
      "inputs": [
        {
          "indexed": true,
          "name": "depositor",
          "type": "address"
        },
        {
          "indexed": true,
          "name": "tokenSymbol",
          "type": "string"
        },
        {
          "indexed": true,
          "name": "amount",
          "type": "uint256"
        }
      ],
      "name": "DepositToken",
      "type": "event"
    },
    {
      "anonymous": false,
      "inputs": [
        {
          "indexed": true,
          "name": "withdrawer",
          "type": "address"
        },
        {
          "indexed": true,
          "name": "tokenSymbol",
          "type": "string"
        },
        {
          "indexed": true,
          "name": "amount",
          "type": "uint256"
        }
      ],
      "name": "WithdrawToken",
      "type": "event"
    },
    {
      "anonymous": false,
      "inputs": [],
      "name": "LimitBuyOrder",
      "type": "event"
    },
    {
      "anonymous": false,
      "inputs": [],
      "name": "LimitSellOrder",
      "type": "event"
    },
    {
      "anonymous": false,
      "inputs": [],
      "name": "BuyOrderFulfilled",
      "type": "event"
    },
    {
      "anonymous": false,
      "inputs": [],
      "name": "SellOrderFulfilled",
      "type": "event"
    },
    {
      "anonymous": false,
      "inputs": [],
      "name": "OrderCanceled",
      "type": "event"
    },
    {
      "anonymous": false,
      "inputs": [
        {
          "indexed": true,
          "name": "previousOwner",
          "type": "address"
        },
        {
          "indexed": true,
          "name": "newOwner",
          "type": "address"
        }
      ],
      "name": "OwnershipTransferred",
      "type": "event"
    }
  ],
  "bytecode": "0x606060405260008054600160a060020a033316600160a060020a0319909116179055610fd1806100306000396000f300606060405236156100ca5763ffffffff60e060020a600035041663025abd5881146100cc57806303bc4a271461012f5780631a8eb72b1461021957806333ad57e41461022c5780633bed33ce1461027f5780635ab8ea3314610295578063728ff0291461012f578063851030fe146102955780638da5cb5b146102ed5780638ea008181461031c57806398ea5fca14610381578063b0b22c2c14610389578063c4091236146103e5578063c97a413a14610436578063d1a3b02514610489578063f2fde38b146104e8575b005b34156100d757600080fd5b61011d60046024813581810190830135806020601f8201819004810201604051908101604052818152929190602084018383808284375094965061050795505050505050565b60405190815260200160405180910390f35b341561013a57600080fd5b61018060046024813581810190830135806020601f8201819004810201604051908101604052818152929190602084018383808284375094965061055995505050505050565b604051808060200180602001838103835285818151815260200191508051906020019060200280838360005b838110156101c45780820151838201526020016101ac565b50505050905001838103825284818151815260200191508051906020019060200280838360005b838110156102035780820151838201526020016101eb565b5050505090500194505050505060405180910390f35b341561022457600080fd5b61011d61056e565b341561023757600080fd5b6100ca60046024813581810190830135806020601f82018190048102016040519081016040528181529291906020840183838082843750949650509335935061058b92505050565b341561028a57600080fd5b6100ca600435610836565b34156102a057600080fd5b6100ca60046024813581810190830135806020601f82018190048102016040519081016040528181529291906020840183838082843750949650508435946020013593506108d392505050565b34156102f857600080fd5b6103006108d8565b604051600160a060020a03909116815260200160405180910390f35b341561032757600080fd5b61036d60046024813581810190830135806020601f820181900481020160405190810160405281815292919060208401838380828437509496506108e795505050505050565b604051901515815260200160405180910390f35b6100ca61090b565b341561039457600080fd5b6100ca60046024813581810190830135806020601f8201819004810201604051908101604052818152929190602084018383808284375094965050509235600160a060020a03169250610975915050565b34156103f057600080fd5b61030060046024813581810190830135806020601f82018190048102016040519081016040528181529291906020840183838082843750949650610b2795505050505050565b341561044157600080fd5b6100ca60046024813581810190830135806020601f820181900481020160405190810160405281815292919060208401838380828437509496505093359350610b6d92505050565b341561049457600080fd5b6100ca60046024813581810190830135806020601f82018190048102016040519081016040528181529291906020840183838082843750949650505050823515159260208101359250604001359050610d0d565b34156104f357600080fd5b6100ca600160a060020a0360043516610d13565b60008061051383610dae565b905061051e836108e7565b151561052957600080fd5b600160a060020a033316600090815260036020908152604080832060ff8516845290915290205491505b50919050565b610561610efb565b610569610efb565b915091565b600160a060020a0333166000908152600260205260409020545b90565b600080600061059985610b27565b92506105a485610507565b91506105af85610dae565b90506105ba856108e7565b15156105c557600080fd5b8383600160a060020a031663dd62ed3e333060006040516020015260405160e060020a63ffffffff8516028152600160a060020a03928316600482015291166024820152604401602060405180830381600087803b151561062557600080fd5b6102c65a03f1151561063657600080fd5b505050604051805190501015151561064d57600080fd5b82600160a060020a03166323b872dd33308760006040516020015260405160e060020a63ffffffff8616028152600160a060020a0393841660048201529190921660248201526044810191909152606401602060405180830381600087803b15156106b757600080fd5b6102c65a03f115156106c857600080fd5b5050506040518051905015156106dd57600080fd5b82600160a060020a031663095ea7b3338660006040516020015260405160e060020a63ffffffff8516028152600160a060020a0390921660048301526024820152604401602060405180830381600087803b151561073a57600080fd5b6102c65a03f1151561074b57600080fd5b50505060405180519050151561076057600080fd5b610770828563ffffffff610ed316565b600160a060020a033316600090815260036020908152604080832060ff86168452909152908190209190915584908690518082805190602001908083835b602083106107cd5780518252601f1990920191602091820191016107ae565b6001836020036101000a0380198251168184511617909252505050919091019250604091505051809103902033600160a060020a03167f509ea15cf5ea595d595d2d29c5eecdcbda2f17a882e39e658661df49f8c27ac660405160405180910390a45050505050565b600061084061056e565b9050610852818363ffffffff610ee916565b600160a060020a03331660008181526002602052604090819020929092559083156108fc0290849051600060405180830381858888f19350505050151561089857600080fd5b8133600160a060020a03167fdb35132c111efe920cede025e819975671cfd1b8fcc1174762c8670c4e94c21160405160405180910390a35050565b505050565b600054600160a060020a031681565b60006108f282610dae565b60ff161561090257506001610906565b5060005b919050565b600061091561056e565b9050610927813463ffffffff610ed316565b600160a060020a033316600081815260026020526040908190209290925534917fe628a607143b255f52afd0900e0d9630dd009c2f2635cd1e28c7aeeeff940802905160405180910390a350565b60005433600160a060020a0390811691161461099057600080fd5b610999826108e7565b156109a357600080fd5b600160a060020a03811615156109b857600080fd5b6001805460ff74010000000000000000000000000000000000000000808304821684018216810274ff00000000000000000000000000000000000000001990931692909217928390559104166000908152600460205260409020828051610a23929160200190610f0d565b506001805460ff740100000000000000000000000000000000000000009182900481166000908152600460205260409081902084018054600160a060020a03871673ffffffffffffffffffffffffffffffffffffffff1990911681179091559354929092041691907fd509fe09a30701837604d32774c277f663f59a188fa3861b5b2d0225cb648b2f9085905160208082528190810183818151815260200191508051906020019080838360005b83811015610ae9578082015183820152602001610ad1565b50505050905090810190601f168015610b165780820380516001836020036101000a031916815260200191505b509250505060405180910390a35050565b600080610b3383610dae565b9050610b3e836108e7565b1515610b4957600080fd5b60ff16600090815260046020526040902060010154600160a060020a031692915050565b6000806000610b7b85610b27565b9250610b8685610507565b9150610b9185610dae565b9050610b9c856108e7565b1515610ba757600080fd5b82600160a060020a03166323b872dd30338760006040516020015260405160e060020a63ffffffff8616028152600160a060020a0393841660048201529190921660248201526044810191909152606401602060405180830381600087803b1515610c1157600080fd5b6102c65a03f11515610c2257600080fd5b505050604051805190501515610c3757600080fd5b610c47828563ffffffff610ee916565b600160a060020a033316600090815260036020908152604080832060ff86168452909152908190209190915584908690518082805190602001908083835b60208310610ca45780518252601f199092019160209182019101610c85565b6001836020036101000a0380198251168184511617909252505050919091019250604091505051809103902033600160a060020a03167f5f9265f1efffb7bef5c495c7bba35558ec47a79213e7e8aa5d3010308c0fda4360405160405180910390a45050505050565b50505050565b60005433600160a060020a03908116911614610d2e57600080fd5b600160a060020a0381161515610d4357600080fd5b600054600160a060020a0380831691167f8be0079c531659141344cd1fd0a4f28419497f9722a3daafe3b4186f6b6457e060405160405180910390a36000805473ffffffffffffffffffffffffffffffffffffffff1916600160a060020a0392909216919091179055565b600060015b60015460ff74010000000000000000000000000000000000000000909104811690821611610eca57826040518082805190602001908083835b60208310610e0b5780518252601f199092019160209182019101610dec565b6001836020036101000a038019825116818451161790925250505091909101925060409150505190819003902060ff82166000908152600460205260409081902090518082805460018160011615610100020316600290048015610ea65780601f10610e84576101008083540402835291820191610ea6565b820191906000526020600020905b815481529060010190602001808311610e92575b50509150506040519081900390201415610ec257809150610553565b600101610db3565b50600092915050565b600082820183811015610ee257fe5b9392505050565b600082821115610ef557fe5b50900390565b60206040519081016040526000815290565b828054600181600116156101000203166002900490600052602060002090601f016020900481019282601f10610f4e57805160ff1916838001178555610f7b565b82800160010185558215610f7b579182015b82811115610f7b578251825591602001919060010190610f60565b50610f87929150610f8b565b5090565b61058891905b80821115610f875760008155600101610f915600a165627a7a72305820f640b471502670afd25e327d74d93757fe7c64571ffaf3b6dfe731c189552c750029",
  "source": "pragma solidity ^0.4.15;\n\nimport \"./zeppelin/ERC20.sol\";\nimport \"./zeppelin/SafeMath.sol\";\nimport \"./zeppelin/Ownable.sol\";\n\ncontract Exchange is Ownable {\n    \n// Constructor\n\n    // SafeMath\n    using SafeMath for uint256;\n    \n    // payable fallback\n    function () public payable {}\n\n\n// Modifiers\n\n\n// Data\n    \n    // Ownership\n    address owner;\n    // TokenIndex\n    uint8 tokenIndexCounter;\n    // Balances\n        // msg.sender => ethBalance\n        // msg.sender => tokenIndex => tokenBalance\n    mapping (address => uint) balancesETH;\n    mapping (address => mapping (uint8 => uint)) balancesToken;\n    // Tokens\n        // tokenIndex => Token struct\n    mapping (uint8 => Token) tokenStruct;\n    struct Token {\n        string tokenSymbol;\n        address tokenAddress;\n        mapping(uint => OrderBook) buyBook;\n        mapping(uint => OrderBook) sellBook;\n        uint curBuyPrice;\n        uint lowestBuyPrice;\n        uint amountBuyPrices;\n        uint curSellPrice;\n        uint highestSellPrice;\n        uint amountSellPrices;\n    }\n    struct OrderBook {\n        uint higherPrice;\n        uint lowerPrice;\n        mapping(uint => Offer) offers;\n        uint offersKey;\n        uint offersLength;\n    }\n    struct Offer {\n        address who;\n        uint amount;\n    }\n    \n    \n// Functions\n\n    // Admin adds tokens, starts at index 1\n    function addToken(string _tokenSymbol, address _erc20Addr) public onlyOwner {\n        require(!hasToken(_tokenSymbol));\n        require(_erc20Addr != address(0));\n        tokenIndexCounter++;\n        tokenStruct[tokenIndexCounter].tokenSymbol = _tokenSymbol;\n        tokenStruct[tokenIndexCounter].tokenAddress = _erc20Addr;\n        AddToken(_tokenSymbol, _erc20Addr, tokenIndexCounter);\n    }\n    \n    // User deposits tokens\n    function depositToken(string _tokenSymbol, uint _amount) public {\n        ERC20 token = ERC20(getTokenAddress(_tokenSymbol));\n        uint balance = getTokenBalance(_tokenSymbol);\n        uint8 index = getTokenIndex(_tokenSymbol);\n        require(hasToken(_tokenSymbol));\n        require(token.allowance(msg.sender, this) >= _amount);\n        require(token.transferFrom(msg.sender, this, _amount));\n        require(token.approve(msg.sender, _amount));\n        balancesToken[msg.sender][index] = balance.add(_amount);\n        DepositToken(msg.sender, _tokenSymbol, _amount);\n    }\n    \n    // User withdraws tokens\n    function withdrawToken(string _tokenSymbol, uint _amount) public {\n        ERC20 token = ERC20(getTokenAddress(_tokenSymbol));\n        uint balance = getTokenBalance(_tokenSymbol);\n        uint8 index = getTokenIndex(_tokenSymbol);\n        require(hasToken(_tokenSymbol));\n        require(token.transferFrom(this, msg.sender, _amount));\n        balancesToken[msg.sender][index] = balance.sub(_amount);\n        WithdrawToken(msg.sender, _tokenSymbol, _amount);\n    }\n    \n    // User deposits ETH\n    function depositEther() public payable {\n        uint balance = getEthBalanceInWei();\n        balancesETH[msg.sender] = balance.add(msg.value);\n        DepositEther(msg.sender, msg.value);\n    }\n    \n    // User withdraws ETH\n    function withdrawEther(uint _amountWei) public {\n        uint balance = getEthBalanceInWei();\n        balancesETH[msg.sender] = balance.sub(_amountWei);\n        msg.sender.transfer(_amountWei);\n        WithdrawEther(msg.sender, _amountWei);\n    }\n    \n    // User places buy order (execute if matching sellorder, store otherwise)\n    function buyToken(string token_symbol, uint price_in_wei, uint amount) public {}\n    \n    // User places sell order (execute if matching buyorder, store otherwise)\n    function sellToken(string token_symbol, uint price_in_wei, uint amount) public {}\n    \n    // Cancel specific limit order\n    function cancelOrder(string token_symbol, bool isSellOrder, uint price_in_wei, uint offer_key) public {}\n    \n    \n// Calls\n\n    // Return index of token\n    function getTokenIndex(string _tokenSymbol) internal constant returns (uint8) {\n        for (uint8 i = 1; i <= tokenIndexCounter; i++) {\n            if (keccak256(tokenStruct[i].tokenSymbol) == keccak256(_tokenSymbol)) { return i; }}\n        return 0;\n    }\n    \n    // Check if token is on the exchange\n    function hasToken(string token_symbol) public constant returns (bool) {\n        if (getTokenIndex(token_symbol) != 0) { return true; }\n        return false;\n    }\n    \n    // Return token balance of msg.sender\n    function getTokenBalance(string _tokenSymbol) public constant returns (uint) {\n        uint8 index = getTokenIndex(_tokenSymbol);\n        require(hasToken(_tokenSymbol));\n        return balancesToken[msg.sender][index];\n    }\n    \n    // Return token contract address\n    function getTokenAddress(string _tokenSymbol) public constant returns (address) {\n        uint8 index = getTokenIndex(_tokenSymbol);\n        require(hasToken(_tokenSymbol));\n        return tokenStruct[index].tokenAddress;\n    }\n    \n    // Return ETH balance of msg.sender\n    function getEthBalanceInWei() public constant returns (uint) {\n        return balancesETH[msg.sender];\n    }\n    \n    // Return order books (price, volume)\n    function getSellOrderBook(string token_symbol) public constant returns (uint[],uint[]) {}\n    function getBuyOrderBook(string token_symbol) public constant returns (uint[],uint[]) {}\n    \n    \n// Events\n\n    // New token added\n    event AddToken(string _tokenSymbol, address indexed _erc20Addr, uint8 indexed _tokenIndex);\n    // Deposit and Withdraw\n    event DepositEther(address indexed depositor, uint indexed amountWei);\n    event WithdrawEther(address indexed withdrawer, uint indexed amountWei);\n    event DepositToken(address indexed depositor, string indexed tokenSymbol, uint indexed amount);\n    event WithdrawToken(address indexed withdrawer, string indexed tokenSymbol, uint indexed amount);\n    // Limit order created\n    event LimitBuyOrder();\n    event LimitSellOrder();\n    // Order fulfilled\n    event BuyOrderFulfilled();\n    event SellOrderFulfilled();\n    // Order canceled\n    event OrderCanceled();\n    \n}\n",
  "sourcePath": "/Users/stephanegosselin/Documents/decentralized-exchange/contracts/Exchange.sol",
  "schemaVersion": "1.0.0",
  "updatedAt": "2017-10-12T14:25:22.026Z"
}