{
  "contractName": "Interface",
  "abi": [
    {
      "constant": true,
      "inputs": [
        {
          "name": "_tokenSymbol",
          "type": "string"
        }
      ],
      "name": "getTokenBalance",
      "outputs": [
        {
          "name": "",
          "type": "uint256"
        }
      ],
      "payable": false,
      "stateMutability": "view",
      "type": "function"
    },
    {
      "constant": true,
      "inputs": [
        {
          "name": "token_symbol",
          "type": "string"
        }
      ],
      "name": "getBuyOrderBook",
      "outputs": [
        {
          "name": "",
          "type": "uint256[]"
        },
        {
          "name": "",
          "type": "uint256[]"
        }
      ],
      "payable": false,
      "stateMutability": "view",
      "type": "function"
    },
    {
      "constant": true,
      "inputs": [],
      "name": "getEthBalanceInWei",
      "outputs": [
        {
          "name": "",
          "type": "uint256"
        }
      ],
      "payable": false,
      "stateMutability": "view",
      "type": "function"
    },
    {
      "constant": false,
      "inputs": [
        {
          "name": "_tokenSymbol",
          "type": "string"
        },
        {
          "name": "_amount",
          "type": "uint256"
        }
      ],
      "name": "depositToken",
      "outputs": [],
      "payable": false,
      "stateMutability": "nonpayable",
      "type": "function"
    },
    {
      "constant": false,
      "inputs": [
        {
          "name": "_amountWei",
          "type": "uint256"
        }
      ],
      "name": "withdrawEther",
      "outputs": [],
      "payable": false,
      "stateMutability": "nonpayable",
      "type": "function"
    },
    {
      "constant": false,
      "inputs": [
        {
          "name": "token_symbol",
          "type": "string"
        },
        {
          "name": "price_in_wei",
          "type": "uint256"
        },
        {
          "name": "amount",
          "type": "uint256"
        }
      ],
      "name": "buyToken",
      "outputs": [],
      "payable": false,
      "stateMutability": "nonpayable",
      "type": "function"
    },
    {
      "constant": true,
      "inputs": [
        {
          "name": "token_symbol",
          "type": "string"
        }
      ],
      "name": "getSellOrderBook",
      "outputs": [
        {
          "name": "",
          "type": "uint256[]"
        },
        {
          "name": "",
          "type": "uint256[]"
        }
      ],
      "payable": false,
      "stateMutability": "view",
      "type": "function"
    },
    {
      "constant": false,
      "inputs": [
        {
          "name": "token_symbol",
          "type": "string"
        },
        {
          "name": "price_in_wei",
          "type": "uint256"
        },
        {
          "name": "amount",
          "type": "uint256"
        }
      ],
      "name": "sellToken",
      "outputs": [],
      "payable": false,
      "stateMutability": "nonpayable",
      "type": "function"
    },
    {
      "constant": true,
      "inputs": [],
      "name": "owner",
      "outputs": [
        {
          "name": "",
          "type": "address"
        }
      ],
      "payable": false,
      "stateMutability": "view",
      "type": "function"
    },
    {
      "constant": true,
      "inputs": [
        {
          "name": "token_symbol",
          "type": "string"
        }
      ],
      "name": "hasToken",
      "outputs": [
        {
          "name": "",
          "type": "bool"
        }
      ],
      "payable": false,
      "stateMutability": "view",
      "type": "function"
    },
    {
      "constant": false,
      "inputs": [],
      "name": "depositEther",
      "outputs": [],
      "payable": true,
      "stateMutability": "payable",
      "type": "function"
    },
    {
      "constant": true,
      "inputs": [
        {
          "name": "_tokenSymbol",
          "type": "string"
        }
      ],
      "name": "getTokenIndexTestable",
      "outputs": [],
      "payable": false,
      "stateMutability": "view",
      "type": "function"
    },
    {
      "constant": false,
      "inputs": [
        {
          "name": "_tokenSymbol",
          "type": "string"
        },
        {
          "name": "_erc20Addr",
          "type": "address"
        }
      ],
      "name": "addToken",
      "outputs": [],
      "payable": false,
      "stateMutability": "nonpayable",
      "type": "function"
    },
    {
      "constant": true,
      "inputs": [
        {
          "name": "_tokenSymbol",
          "type": "string"
        }
      ],
      "name": "getTokenAddress",
      "outputs": [
        {
          "name": "",
          "type": "address"
        }
      ],
      "payable": false,
      "stateMutability": "view",
      "type": "function"
    },
    {
      "constant": false,
      "inputs": [
        {
          "name": "_tokenSymbol",
          "type": "string"
        },
        {
          "name": "_amount",
          "type": "uint256"
        }
      ],
      "name": "withdrawToken",
      "outputs": [],
      "payable": false,
      "stateMutability": "nonpayable",
      "type": "function"
    },
    {
      "constant": false,
      "inputs": [
        {
          "name": "token_symbol",
          "type": "string"
        },
        {
          "name": "isSellOrder",
          "type": "bool"
        },
        {
          "name": "price_in_wei",
          "type": "uint256"
        },
        {
          "name": "offer_key",
          "type": "uint256"
        }
      ],
      "name": "cancelOrder",
      "outputs": [],
      "payable": false,
      "stateMutability": "nonpayable",
      "type": "function"
    },
    {
      "constant": false,
      "inputs": [
        {
          "name": "newOwner",
          "type": "address"
        }
      ],
      "name": "transferOwnership",
      "outputs": [],
      "payable": false,
      "stateMutability": "nonpayable",
      "type": "function"
    },
    {
      "payable": true,
      "stateMutability": "payable",
      "type": "fallback"
    },
    {
      "anonymous": false,
      "inputs": [
        {
          "indexed": false,
          "name": "_tokenSymbol",
          "type": "string"
        },
        {
          "indexed": true,
          "name": "_erc20Addr",
          "type": "address"
        },
        {
          "indexed": true,
          "name": "_tokenIndex",
          "type": "uint8"
        }
      ],
      "name": "AddToken",
      "type": "event"
    },
    {
      "anonymous": false,
      "inputs": [
        {
          "indexed": true,
          "name": "depositor",
          "type": "address"
        },
        {
          "indexed": true,
          "name": "amountWei",
          "type": "uint256"
        }
      ],
      "name": "DepositEther",
      "type": "event"
    },
    {
      "anonymous": false,
      "inputs": [
        {
          "indexed": true,
          "name": "withdrawer",
          "type": "address"
        },
        {
          "indexed": true,
          "name": "amountWei",
          "type": "uint256"
        }
      ],
      "name": "WithdrawEther",
      "type": "event"
    },
    {
      "anonymous": false,
      "inputs": [
        {
          "indexed": true,
          "name": "depositor",
          "type": "address"
        },
        {
          "indexed": true,
          "name": "tokenSymbol",
          "type": "string"
        },
        {
          "indexed": true,
          "name": "amount",
          "type": "uint256"
        }
      ],
      "name": "DepositToken",
      "type": "event"
    },
    {
      "anonymous": false,
      "inputs": [
        {
          "indexed": true,
          "name": "withdrawer",
          "type": "address"
        },
        {
          "indexed": true,
          "name": "tokenSymbol",
          "type": "string"
        },
        {
          "indexed": true,
          "name": "amount",
          "type": "uint256"
        }
      ],
      "name": "WithdrawToken",
      "type": "event"
    },
    {
      "anonymous": false,
      "inputs": [],
      "name": "LimitBuyOrder",
      "type": "event"
    },
    {
      "anonymous": false,
      "inputs": [],
      "name": "LimitSellOrder",
      "type": "event"
    },
    {
      "anonymous": false,
      "inputs": [],
      "name": "BuyOrderFulfilled",
      "type": "event"
    },
    {
      "anonymous": false,
      "inputs": [],
      "name": "SellOrderFulfilled",
      "type": "event"
    },
    {
      "anonymous": false,
      "inputs": [],
      "name": "OrderCanceled",
      "type": "event"
    },
    {
      "anonymous": false,
      "inputs": [
        {
          "indexed": true,
          "name": "previousOwner",
          "type": "address"
        },
        {
          "indexed": true,
          "name": "newOwner",
          "type": "address"
        }
      ],
      "name": "OwnershipTransferred",
      "type": "event"
    }
  ],
  "bytecode": "0x606060405260008054600160a060020a033316600160a060020a031990911617905561103a806100306000396000f300606060405236156100d55763ffffffff60e060020a600035041663025abd5881146100d757806303bc4a271461013a5780631a8eb72b1461022457806333ad57e4146102375780633bed33ce1461028a5780635ab8ea33146102a0578063728ff0291461013a578063851030fe146102a05780638da5cb5b146102f85780638ea008181461032757806398ea5fca1461038c578063a05de2d114610394578063b0b22c2c146103e5578063c409123614610441578063c97a413a14610492578063d1a3b025146104e5578063f2fde38b14610544575b005b34156100e257600080fd5b61012860046024813581810190830135806020601f8201819004810201604051908101604052818152929190602084018383808284375094965061056395505050505050565b60405190815260200160405180910390f35b341561014557600080fd5b61018b60046024813581810190830135806020601f820181900481020160405190810160405281815292919060208401838380828437509496506105b595505050505050565b604051808060200180602001838103835285818151815260200191508051906020019060200280838360005b838110156101cf5780820151838201526020016101b7565b50505050905001838103825284818151815260200191508051906020019060200280838360005b8381101561020e5780820151838201526020016101f6565b5050505090500194505050505060405180910390f35b341561022f57600080fd5b6101286105ca565b341561024257600080fd5b6100d560046024813581810190830135806020601f8201819004810201604051908101604052818152929190602084018383808284375094965050933593506105e792505050565b341561029557600080fd5b6100d5600435610892565b34156102ab57600080fd5b6100d560046024813581810190830135806020601f820181900481020160405190810160405281815292919060208401838380828437509496505084359460200135935061092f92505050565b341561030357600080fd5b61030b610934565b604051600160a060020a03909116815260200160405180910390f35b341561033257600080fd5b61037860046024813581810190830135806020601f8201819004810201604051908101604052818152929190602084018383808284375094965061094395505050505050565b604051901515815260200160405180910390f35b6100d5610967565b341561039f57600080fd5b6100d560046024813581810190830135806020601f820181900481020160405190810160405281815292919060208401838380828437509496506109d195505050505050565b34156103f057600080fd5b6100d560046024813581810190830135806020601f8201819004810201604051908101604052818152929190602084018383808284375094965050509235600160a060020a031692506109de915050565b341561044c57600080fd5b61030b60046024813581810190830135806020601f82018190048102016040519081016040528181529291906020840183838082843750949650610b9095505050505050565b341561049d57600080fd5b6100d560046024813581810190830135806020601f820181900481020160405190810160405281815292919060208401838380828437509496505093359350610bd692505050565b34156104f057600080fd5b6100d560046024813581810190830135806020601f82018190048102016040519081016040528181529291906020840183838082843750949650505050823515159260208101359250604001359050610d76565b341561054f57600080fd5b6100d5600160a060020a0360043516610d7c565b60008061056f83610e17565b905061057a83610943565b151561058557600080fd5b600160a060020a033316600090815260036020908152604080832060ff8516845290915290205491505b50919050565b6105bd610f64565b6105c5610f64565b915091565b600160a060020a0333166000908152600260205260409020545b90565b60008060006105f585610b90565b925061060085610563565b915061060b85610e17565b905061061685610943565b151561062157600080fd5b8383600160a060020a031663dd62ed3e333060006040516020015260405160e060020a63ffffffff8516028152600160a060020a03928316600482015291166024820152604401602060405180830381600087803b151561068157600080fd5b6102c65a03f1151561069257600080fd5b50505060405180519050101515156106a957600080fd5b82600160a060020a03166323b872dd33308760006040516020015260405160e060020a63ffffffff8616028152600160a060020a0393841660048201529190921660248201526044810191909152606401602060405180830381600087803b151561071357600080fd5b6102c65a03f1151561072457600080fd5b50505060405180519050151561073957600080fd5b82600160a060020a031663095ea7b3338660006040516020015260405160e060020a63ffffffff8516028152600160a060020a0390921660048301526024820152604401602060405180830381600087803b151561079657600080fd5b6102c65a03f115156107a757600080fd5b5050506040518051905015156107bc57600080fd5b6107cc828563ffffffff610f3c16565b600160a060020a033316600090815260036020908152604080832060ff86168452909152908190209190915584908690518082805190602001908083835b602083106108295780518252601f19909201916020918201910161080a565b6001836020036101000a0380198251168184511617909252505050919091019250604091505051809103902033600160a060020a03167f509ea15cf5ea595d595d2d29c5eecdcbda2f17a882e39e658661df49f8c27ac660405160405180910390a45050505050565b600061089c6105ca565b90506108ae818363ffffffff610f5216565b600160a060020a03331660008181526002602052604090819020929092559083156108fc0290849051600060405180830381858888f1935050505015156108f457600080fd5b8133600160a060020a03167fdb35132c111efe920cede025e819975671cfd1b8fcc1174762c8670c4e94c21160405160405180910390a35050565b505050565b600054600160a060020a031681565b600061094e82610e17565b60ff161561095e57506001610962565b5060005b919050565b60006109716105ca565b9050610983813463ffffffff610f3c16565b600160a060020a033316600081815260026020526040908190209290925534917fe628a607143b255f52afd0900e0d9630dd009c2f2635cd1e28c7aeeeff940802905160405180910390a350565b6109da81610e17565b5050565b60005433600160a060020a039081169116146109f957600080fd5b610a0282610943565b15610a0c57600080fd5b600160a060020a0381161515610a2157600080fd5b6001805460ff74010000000000000000000000000000000000000000808304821684018216810274ff00000000000000000000000000000000000000001990931692909217928390559104166000908152600460205260409020828051610a8c929160200190610f76565b506001805460ff740100000000000000000000000000000000000000009182900481166000908152600460205260409081902084018054600160a060020a03871673ffffffffffffffffffffffffffffffffffffffff1990911681179091559354929092041691907fd509fe09a30701837604d32774c277f663f59a188fa3861b5b2d0225cb648b2f9085905160208082528190810183818151815260200191508051906020019080838360005b83811015610b52578082015183820152602001610b3a565b50505050905090810190601f168015610b7f5780820380516001836020036101000a031916815260200191505b509250505060405180910390a35050565b600080610b9c83610e17565b9050610ba783610943565b1515610bb257600080fd5b60ff16600090815260046020526040902060010154600160a060020a031692915050565b6000806000610be485610b90565b9250610bef85610563565b9150610bfa85610e17565b9050610c0585610943565b1515610c1057600080fd5b82600160a060020a03166323b872dd30338760006040516020015260405160e060020a63ffffffff8616028152600160a060020a0393841660048201529190921660248201526044810191909152606401602060405180830381600087803b1515610c7a57600080fd5b6102c65a03f11515610c8b57600080fd5b505050604051805190501515610ca057600080fd5b610cb0828563ffffffff610f5216565b600160a060020a033316600090815260036020908152604080832060ff86168452909152908190209190915584908690518082805190602001908083835b60208310610d0d5780518252601f199092019160209182019101610cee565b6001836020036101000a0380198251168184511617909252505050919091019250604091505051809103902033600160a060020a03167f5f9265f1efffb7bef5c495c7bba35558ec47a79213e7e8aa5d3010308c0fda4360405160405180910390a45050505050565b50505050565b60005433600160a060020a03908116911614610d9757600080fd5b600160a060020a0381161515610dac57600080fd5b600054600160a060020a0380831691167f8be0079c531659141344cd1fd0a4f28419497f9722a3daafe3b4186f6b6457e060405160405180910390a36000805473ffffffffffffffffffffffffffffffffffffffff1916600160a060020a0392909216919091179055565b600060015b60015460ff74010000000000000000000000000000000000000000909104811690821611610f3357826040518082805190602001908083835b60208310610e745780518252601f199092019160209182019101610e55565b6001836020036101000a038019825116818451161790925250505091909101925060409150505190819003902060ff82166000908152600460205260409081902090518082805460018160011615610100020316600290048015610f0f5780601f10610eed576101008083540402835291820191610f0f565b820191906000526020600020905b815481529060010190602001808311610efb575b50509150506040519081900390201415610f2b578091506105af565b600101610e1c565b50600092915050565b600082820183811015610f4b57fe5b9392505050565b600082821115610f5e57fe5b50900390565b60206040519081016040526000815290565b828054600181600116156101000203166002900490600052602060002090601f016020900481019282601f10610fb757805160ff1916838001178555610fe4565b82800160010185558215610fe4579182015b82811115610fe4578251825591602001919060010190610fc9565b50610ff0929150610ff4565b5090565b6105e491905b80821115610ff05760008155600101610ffa5600a165627a7a72305820feb1329ca753036bf98fe14c3c7de58e267c40dbf4e8c8f7324e3dfcb3bc0fc80029",
  "source": "pragma solidity ^0.4.15;\n\n// Interface for testing internal functions and variables\n\nimport \"./Exchange.sol\";\n\ncontract Interface is Exchange {\n    function getTokenIndexTestable(string _tokenSymbol) constant {\n        getTokenIndex(_tokenSymbol);\n    }\n}",
  "sourcePath": "/Users/stephanegosselin/Documents/decentralized-exchange/contracts/Interface.sol",
  "schemaVersion": "1.0.0",
  "updatedAt": "2017-10-12T14:25:22.028Z"
}